{
  "_format": "hh-sol-artifact-1",
  "contractName": "NFTMarketplace",
  "sourceName": "contracts/pseudoMarketplace.sol",
  "abi": [
    {
      "inputs": [],
      "stateMutability": "nonpayable",
      "type": "constructor"
    },
    {
      "anonymous": false,
      "inputs": [
        {
          "indexed": true,
          "internalType": "address",
          "name": "seller",
          "type": "address"
        },
        {
          "indexed": true,
          "internalType": "uint256",
          "name": "tokenId",
          "type": "uint256"
        }
      ],
      "name": "SaleCancelled",
      "type": "event"
    },
    {
      "anonymous": false,
      "inputs": [
        {
          "indexed": true,
          "internalType": "address",
          "name": "seller",
          "type": "address"
        },
        {
          "indexed": true,
          "internalType": "uint256",
          "name": "tokenId",
          "type": "uint256"
        },
        {
          "indexed": false,
          "internalType": "uint256",
          "name": "price",
          "type": "uint256"
        }
      ],
      "name": "SaleCreated",
      "type": "event"
    },
    {
      "anonymous": false,
      "inputs": [
        {
          "indexed": true,
          "internalType": "address",
          "name": "seller",
          "type": "address"
        },
        {
          "indexed": true,
          "internalType": "address",
          "name": "buyer",
          "type": "address"
        },
        {
          "indexed": true,
          "internalType": "uint256",
          "name": "tokenId",
          "type": "uint256"
        },
        {
          "indexed": false,
          "internalType": "uint256",
          "name": "price",
          "type": "uint256"
        }
      ],
      "name": "SaleSuccessful",
      "type": "event"
    },
    {
      "inputs": [
        {
          "internalType": "uint256",
          "name": "id",
          "type": "uint256"
        },
        {
          "internalType": "address",
          "name": "buyer",
          "type": "address"
        },
        {
          "internalType": "address",
          "name": "seller",
          "type": "address"
        },
        {
          "internalType": "uint256",
          "name": "price",
          "type": "uint256"
        }
      ],
      "name": "addToSales",
      "outputs": [],
      "stateMutability": "nonpayable",
      "type": "function"
    },
    {
      "inputs": [
        {
          "internalType": "uint256",
          "name": "_tokenId",
          "type": "uint256"
        }
      ],
      "name": "cancelSale",
      "outputs": [],
      "stateMutability": "nonpayable",
      "type": "function"
    },
    {
      "inputs": [
        {
          "internalType": "uint256",
          "name": "_tokenId",
          "type": "uint256"
        },
        {
          "internalType": "uint256",
          "name": "_price",
          "type": "uint256"
        },
        {
          "internalType": "address",
          "name": "NFTContract",
          "type": "address"
        },
        {
          "internalType": "address",
          "name": "buyer",
          "type": "address"
        }
      ],
      "name": "createSale",
      "outputs": [],
      "stateMutability": "nonpayable",
      "type": "function"
    },
    {
      "inputs": [],
      "name": "feePercent",
      "outputs": [
        {
          "internalType": "uint256",
          "name": "",
          "type": "uint256"
        }
      ],
      "stateMutability": "view",
      "type": "function"
    },
    {
      "inputs": [
        {
          "internalType": "address",
          "name": "",
          "type": "address"
        },
        {
          "internalType": "address",
          "name": "",
          "type": "address"
        },
        {
          "internalType": "uint256",
          "name": "",
          "type": "uint256"
        },
        {
          "internalType": "bytes",
          "name": "",
          "type": "bytes"
        }
      ],
      "name": "onERC721Received",
      "outputs": [
        {
          "internalType": "bytes4",
          "name": "",
          "type": "bytes4"
        }
      ],
      "stateMutability": "nonpayable",
      "type": "function"
    },
    {
      "inputs": [],
      "name": "owner",
      "outputs": [
        {
          "internalType": "address",
          "name": "",
          "type": "address"
        }
      ],
      "stateMutability": "view",
      "type": "function"
    },
    {
      "inputs": [
        {
          "internalType": "uint256",
          "name": "",
          "type": "uint256"
        }
      ],
      "name": "sales",
      "outputs": [
        {
          "internalType": "address",
          "name": "buyer",
          "type": "address"
        },
        {
          "internalType": "address",
          "name": "seller",
          "type": "address"
        },
        {
          "internalType": "uint256",
          "name": "price",
          "type": "uint256"
        },
        {
          "internalType": "uint256",
          "name": "tokenId",
          "type": "uint256"
        },
        {
          "internalType": "bool",
          "name": "active",
          "type": "bool"
        }
      ],
      "stateMutability": "view",
      "type": "function"
    }
  ],
  "bytecode": "0x608060405234801561001057600080fd5b50336000806101000a81548173ffffffffffffffffffffffffffffffffffffffff021916908373ffffffffffffffffffffffffffffffffffffffff1602179055506103e8600181905550610fd4806100696000396000f3fe608060405234801561001057600080fd5b506004361061007d5760003560e01c80638da5cb5b1161005b5780638da5cb5b146100ec578063b5f522f71461010a578063bd94b0051461013e578063e4a5867a1461015a5761007d565b8063150b7a02146100825780631df3574f146100b25780637fd6f15c146100ce575b600080fd5b61009c60048036038101906100979190610a4d565b610176565b6040516100a99190610b0b565b60405180910390f35b6100cc60048036038101906100c79190610b26565b61018a565b005b6100d66104a1565b6040516100e39190610b9c565b60405180910390f35b6100f46104a7565b6040516101019190610bc6565b60405180910390f35b610124600480360381019061011f9190610be1565b6104cb565b604051610135959493929190610c29565b60405180910390f35b61015860048036038101906101539190610be1565b61054e565b005b610174600480360381019061016f9190610c7c565b61072b565b005b600063150b7a0260e01b9050949350505050565b8173ffffffffffffffffffffffffffffffffffffffff16636352211e856040518263ffffffff1660e01b81526004016101c39190610b9c565b602060405180830381865afa1580156101e0573d6000803e3d6000fd5b505050506040513d601f19601f820116820180604052508101906102049190610cf8565b73ffffffffffffffffffffffffffffffffffffffff163373ffffffffffffffffffffffffffffffffffffffff1614610271576040517f08c379a000000000000000000000000000000000000000000000000000000000815260040161026890610d82565b60405180910390fd5b600015156002600086815260200190815260200160002060040160009054906101000a900460ff161515146102db576040517f08c379a00000000000000000000000000000000000000000000000000000000081526004016102d290610dee565b60405180910390fd5b6000831161031e576040517f08c379a000000000000000000000000000000000000000000000000000000000815260040161031590610e5a565b60405180910390fd5b6040518060a001604052808273ffffffffffffffffffffffffffffffffffffffff1681526020013373ffffffffffffffffffffffffffffffffffffffff168152602001848152602001858152602001600115158152506002600086815260200190815260200160002060008201518160000160006101000a81548173ffffffffffffffffffffffffffffffffffffffff021916908373ffffffffffffffffffffffffffffffffffffffff16021790555060208201518160010160006101000a81548173ffffffffffffffffffffffffffffffffffffffff021916908373ffffffffffffffffffffffffffffffffffffffff160217905550604082015181600201556060820151816003015560808201518160040160006101000a81548160ff021916908315150217905550905050833373ffffffffffffffffffffffffffffffffffffffff167f2c5a9de64e99c2ab1b836ad03048ec0bef7c0a2af3dd947595c46274e50a7c82856040516104939190610b9c565b60405180910390a350505050565b60015481565b60008054906101000a900473ffffffffffffffffffffffffffffffffffffffff1681565b60026020528060005260406000206000915090508060000160009054906101000a900473ffffffffffffffffffffffffffffffffffffffff16908060010160009054906101000a900473ffffffffffffffffffffffffffffffffffffffff16908060020154908060030154908060040160009054906101000a900460ff16905085565b6002600082815260200190815260200160002060010160009054906101000a900473ffffffffffffffffffffffffffffffffffffffff1673ffffffffffffffffffffffffffffffffffffffff163373ffffffffffffffffffffffffffffffffffffffff16146105f2576040517f08c379a00000000000000000000000000000000000000000000000000000000081526004016105e990610eec565b60405180910390fd5b600115156002600083815260200190815260200160002060040160009054906101000a900460ff1615151461065c576040517f08c379a000000000000000000000000000000000000000000000000000000000815260040161065390610f7e565b60405180910390fd5b60026000828152602001908152602001600020600080820160006101000a81549073ffffffffffffffffffffffffffffffffffffffff02191690556001820160006101000a81549073ffffffffffffffffffffffffffffffffffffffff0219169055600282016000905560038201600090556004820160006101000a81549060ff02191690555050803373ffffffffffffffffffffffffffffffffffffffff167fc9b961c43fe701b83ae14bfe2d7625ea85b27c33b4aae8d1fdf4b344d5ea1dbc60405160405180910390a350565b6040518060a001604052808473ffffffffffffffffffffffffffffffffffffffff1681526020018373ffffffffffffffffffffffffffffffffffffffff168152602001828152602001858152602001600115158152506002600086815260200190815260200160002060008201518160000160006101000a81548173ffffffffffffffffffffffffffffffffffffffff021916908373ffffffffffffffffffffffffffffffffffffffff16021790555060208201518160010160006101000a81548173ffffffffffffffffffffffffffffffffffffffff021916908373ffffffffffffffffffffffffffffffffffffffff160217905550604082015181600201556060820151816003015560808201518160040160006101000a81548160ff02191690831515021790555090505050505050565b6000604051905090565b600080fd5b600080fd5b600073ffffffffffffffffffffffffffffffffffffffff82169050919050565b600061089e82610873565b9050919050565b6108ae81610893565b81146108b957600080fd5b50565b6000813590506108cb816108a5565b92915050565b6000819050919050565b6108e4816108d1565b81146108ef57600080fd5b50565b600081359050610901816108db565b92915050565b600080fd5b600080fd5b6000601f19601f8301169050919050565b7f4e487b7100000000000000000000000000000000000000000000000000000000600052604160045260246000fd5b61095a82610911565b810181811067ffffffffffffffff8211171561097957610978610922565b5b80604052505050565b600061098c61085f565b90506109988282610951565b919050565b600067ffffffffffffffff8211156109b8576109b7610922565b5b6109c182610911565b9050602081019050919050565b82818337600083830152505050565b60006109f06109eb8461099d565b610982565b905082815260208101848484011115610a0c57610a0b61090c565b5b610a178482856109ce565b509392505050565b600082601f830112610a3457610a33610907565b5b8135610a448482602086016109dd565b91505092915050565b60008060008060808587031215610a6757610a66610869565b5b6000610a75878288016108bc565b9450506020610a86878288016108bc565b9350506040610a97878288016108f2565b925050606085013567ffffffffffffffff811115610ab857610ab761086e565b5b610ac487828801610a1f565b91505092959194509250565b60007fffffffff0000000000000000000000000000000000000000000000000000000082169050919050565b610b0581610ad0565b82525050565b6000602082019050610b206000830184610afc565b92915050565b60008060008060808587031215610b4057610b3f610869565b5b6000610b4e878288016108f2565b9450506020610b5f878288016108f2565b9350506040610b70878288016108bc565b9250506060610b81878288016108bc565b91505092959194509250565b610b96816108d1565b82525050565b6000602082019050610bb16000830184610b8d565b92915050565b610bc081610893565b82525050565b6000602082019050610bdb6000830184610bb7565b92915050565b600060208284031215610bf757610bf6610869565b5b6000610c05848285016108f2565b91505092915050565b60008115159050919050565b610c2381610c0e565b82525050565b600060a082019050610c3e6000830188610bb7565b610c4b6020830187610bb7565b610c586040830186610b8d565b610c656060830185610b8d565b610c726080830184610c1a565b9695505050505050565b60008060008060808587031215610c9657610c95610869565b5b6000610ca4878288016108f2565b9450506020610cb5878288016108bc565b9350506040610cc6878288016108bc565b9250506060610cd7878288016108f2565b91505092959194509250565b600081519050610cf2816108a5565b92915050565b600060208284031215610d0e57610d0d610869565b5b6000610d1c84828501610ce3565b91505092915050565b600082825260208201905092915050565b7f596f7520646f206e6f74206f776e2074686973204e4654000000000000000000600082015250565b6000610d6c601783610d25565b9150610d7782610d36565b602082019050919050565b60006020820190508181036000830152610d9b81610d5f565b9050919050565b7f54686973204e465420697320616c726561647920666f722073616c6500000000600082015250565b6000610dd8601c83610d25565b9150610de382610da2565b602082019050919050565b60006020820190508181036000830152610e0781610dcb565b9050919050565b7f5072696365206d7573742062652067726561746572207468616e207a65726f00600082015250565b6000610e44601f83610d25565b9150610e4f82610e0e565b602082019050919050565b60006020820190508181036000830152610e7381610e37565b9050919050565b7f596f7520617265206e6f74207468652073656c6c6572206f662074686973204e60008201527f4654000000000000000000000000000000000000000000000000000000000000602082015250565b6000610ed6602283610d25565b9150610ee182610e7a565b604082019050919050565b60006020820190508181036000830152610f0581610ec9565b9050919050565b7f54686973204e4654206973206e6f742063757272656e746c7920666f7220736160008201527f6c65000000000000000000000000000000000000000000000000000000000000602082015250565b6000610f68602283610d25565b9150610f7382610f0c565b604082019050919050565b60006020820190508181036000830152610f9781610f5b565b905091905056fea2646970667358221220dbf21a1b67d6a9b5d3857e9db6ee2c1a152161c18a157f62c505bba4e5062f8d64736f6c63430008130033",
  "linkReferences": {},
  "deployedLinkReferences": {}
}