{
  "_format": "hh-sol-artifact-1",
  "contractName": "SuperNFTWrapper",
  "sourceName": "contracts/superNFTWrapper.sol",
  "abi": [
    {
      "inputs": [
        {
          "internalType": "contract IERC721",
          "name": "nft_",
          "type": "address"
        }
      ],
      "stateMutability": "nonpayable",
      "type": "constructor"
    },
    {
      "anonymous": false,
      "inputs": [
        {
          "indexed": true,
          "internalType": "address",
          "name": "owner",
          "type": "address"
        },
        {
          "indexed": true,
          "internalType": "address",
          "name": "approved",
          "type": "address"
        },
        {
          "indexed": true,
          "internalType": "uint256",
          "name": "tokenId",
          "type": "uint256"
        }
      ],
      "name": "Approval",
      "type": "event"
    },
    {
      "anonymous": false,
      "inputs": [
        {
          "indexed": true,
          "internalType": "address",
          "name": "owner",
          "type": "address"
        },
        {
          "indexed": true,
          "internalType": "address",
          "name": "operator",
          "type": "address"
        },
        {
          "indexed": false,
          "internalType": "bool",
          "name": "approved",
          "type": "bool"
        }
      ],
      "name": "ApprovalForAll",
      "type": "event"
    },
    {
      "anonymous": false,
      "inputs": [
        {
          "indexed": true,
          "internalType": "address",
          "name": "previousOwner",
          "type": "address"
        },
        {
          "indexed": true,
          "internalType": "address",
          "name": "newOwner",
          "type": "address"
        }
      ],
      "name": "OwnershipTransferred",
      "type": "event"
    },
    {
      "anonymous": false,
      "inputs": [
        {
          "indexed": true,
          "internalType": "address",
          "name": "from",
          "type": "address"
        },
        {
          "indexed": true,
          "internalType": "address",
          "name": "to",
          "type": "address"
        },
        {
          "indexed": true,
          "internalType": "uint256",
          "name": "tokenId",
          "type": "uint256"
        }
      ],
      "name": "Transfer",
      "type": "event"
    },
    {
      "inputs": [
        {
          "internalType": "uint256",
          "name": "",
          "type": "uint256"
        }
      ],
      "name": "FFTMappings",
      "outputs": [
        {
          "internalType": "contract PureSuperToken",
          "name": "",
          "type": "address"
        }
      ],
      "stateMutability": "view",
      "type": "function"
    },
    {
      "inputs": [
        {
          "internalType": "address",
          "name": "to",
          "type": "address"
        },
        {
          "internalType": "uint256",
          "name": "tokenId",
          "type": "uint256"
        }
      ],
      "name": "approve",
      "outputs": [],
      "stateMutability": "nonpayable",
      "type": "function"
    },
    {
      "inputs": [
        {
          "internalType": "address",
          "name": "owner",
          "type": "address"
        }
      ],
      "name": "balanceOf",
      "outputs": [
        {
          "internalType": "uint256",
          "name": "",
          "type": "uint256"
        }
      ],
      "stateMutability": "view",
      "type": "function"
    },
    {
      "inputs": [
        {
          "internalType": "uint256",
          "name": "tokenId",
          "type": "uint256"
        }
      ],
      "name": "getApproved",
      "outputs": [
        {
          "internalType": "address",
          "name": "",
          "type": "address"
        }
      ],
      "stateMutability": "view",
      "type": "function"
    },
    {
      "inputs": [
        {
          "internalType": "address",
          "name": "owner",
          "type": "address"
        },
        {
          "internalType": "address",
          "name": "operator",
          "type": "address"
        }
      ],
      "name": "isApprovedForAll",
      "outputs": [
        {
          "internalType": "bool",
          "name": "",
          "type": "bool"
        }
      ],
      "stateMutability": "view",
      "type": "function"
    },
    {
      "inputs": [],
      "name": "name",
      "outputs": [
        {
          "internalType": "string",
          "name": "",
          "type": "string"
        }
      ],
      "stateMutability": "view",
      "type": "function"
    },
    {
      "inputs": [
        {
          "internalType": "address",
          "name": "",
          "type": "address"
        },
        {
          "internalType": "address",
          "name": "",
          "type": "address"
        },
        {
          "internalType": "uint256",
          "name": "",
          "type": "uint256"
        },
        {
          "internalType": "bytes",
          "name": "",
          "type": "bytes"
        }
      ],
      "name": "onERC721Received",
      "outputs": [
        {
          "internalType": "bytes4",
          "name": "",
          "type": "bytes4"
        }
      ],
      "stateMutability": "nonpayable",
      "type": "function"
    },
    {
      "inputs": [],
      "name": "owner",
      "outputs": [
        {
          "internalType": "address",
          "name": "",
          "type": "address"
        }
      ],
      "stateMutability": "view",
      "type": "function"
    },
    {
      "inputs": [
        {
          "internalType": "uint256",
          "name": "tokenId",
          "type": "uint256"
        }
      ],
      "name": "ownerOf",
      "outputs": [
        {
          "internalType": "address",
          "name": "",
          "type": "address"
        }
      ],
      "stateMutability": "view",
      "type": "function"
    },
    {
      "inputs": [],
      "name": "renounceOwnership",
      "outputs": [],
      "stateMutability": "nonpayable",
      "type": "function"
    },
    {
      "inputs": [
        {
          "internalType": "address",
          "name": "from",
          "type": "address"
        },
        {
          "internalType": "address",
          "name": "to",
          "type": "address"
        },
        {
          "internalType": "uint256",
          "name": "tokenId",
          "type": "uint256"
        }
      ],
      "name": "safeTransferFrom",
      "outputs": [],
      "stateMutability": "nonpayable",
      "type": "function"
    },
    {
      "inputs": [
        {
          "internalType": "address",
          "name": "from",
          "type": "address"
        },
        {
          "internalType": "address",
          "name": "to",
          "type": "address"
        },
        {
          "internalType": "uint256",
          "name": "tokenId",
          "type": "uint256"
        },
        {
          "internalType": "bytes",
          "name": "data",
          "type": "bytes"
        }
      ],
      "name": "safeTransferFrom",
      "outputs": [],
      "stateMutability": "nonpayable",
      "type": "function"
    },
    {
      "inputs": [
        {
          "internalType": "address",
          "name": "operator",
          "type": "address"
        },
        {
          "internalType": "bool",
          "name": "approved",
          "type": "bool"
        }
      ],
      "name": "setApprovalForAll",
      "outputs": [],
      "stateMutability": "nonpayable",
      "type": "function"
    },
    {
      "inputs": [
        {
          "internalType": "bytes4",
          "name": "interfaceId",
          "type": "bytes4"
        }
      ],
      "name": "supportsInterface",
      "outputs": [
        {
          "internalType": "bool",
          "name": "",
          "type": "bool"
        }
      ],
      "stateMutability": "view",
      "type": "function"
    },
    {
      "inputs": [],
      "name": "symbol",
      "outputs": [
        {
          "internalType": "string",
          "name": "",
          "type": "string"
        }
      ],
      "stateMutability": "view",
      "type": "function"
    },
    {
      "inputs": [
        {
          "internalType": "uint256",
          "name": "tokenId",
          "type": "uint256"
        }
      ],
      "name": "tokenURI",
      "outputs": [
        {
          "internalType": "string",
          "name": "",
          "type": "string"
        }
      ],
      "stateMutability": "view",
      "type": "function"
    },
    {
      "inputs": [
        {
          "internalType": "address",
          "name": "from",
          "type": "address"
        },
        {
          "internalType": "address",
          "name": "to",
          "type": "address"
        },
        {
          "internalType": "uint256",
          "name": "tokenId",
          "type": "uint256"
        }
      ],
      "name": "transferFrom",
      "outputs": [],
      "stateMutability": "nonpayable",
      "type": "function"
    },
    {
      "inputs": [
        {
          "internalType": "address",
          "name": "newOwner",
          "type": "address"
        }
      ],
      "name": "transferOwnership",
      "outputs": [],
      "stateMutability": "nonpayable",
      "type": "function"
    },
    {
      "inputs": [
        {
          "internalType": "uint256",
          "name": "tokenId_",
          "type": "uint256"
        }
      ],
      "name": "unwrapNFT",
      "outputs": [],
      "stateMutability": "nonpayable",
      "type": "function"
    },
    {
      "inputs": [
        {
          "internalType": "uint256",
          "name": "tokenId_",
          "type": "uint256"
        },
        {
          "internalType": "string",
          "name": "tokenURI_",
          "type": "string"
        }
      ],
      "name": "wrapNFT",
      "outputs": [],
      "stateMutability": "nonpayable",
      "type": "function"
    }
  ],
  "bytecode": "0x60806040523480156200001157600080fd5b506040516200472d3803806200472d83398181016040528101906200003791906200027b565b6040518060400160405280600d81526020017f5375706572536c6963654e4654000000000000000000000000000000000000008152506040518060400160405280600581526020017f53534e4654000000000000000000000000000000000000000000000000000000815250620000c3620000b76200013160201b60201c565b6200013960201b60201c565b8160019081620000d4919062000527565b508060029081620000e6919062000527565b50505080600860006101000a81548173ffffffffffffffffffffffffffffffffffffffff021916908373ffffffffffffffffffffffffffffffffffffffff160217905550506200060e565b600033905090565b60008060009054906101000a900473ffffffffffffffffffffffffffffffffffffffff169050816000806101000a81548173ffffffffffffffffffffffffffffffffffffffff021916908373ffffffffffffffffffffffffffffffffffffffff1602179055508173ffffffffffffffffffffffffffffffffffffffff168173ffffffffffffffffffffffffffffffffffffffff167f8be0079c531659141344cd1fd0a4f28419497f9722a3daafe3b4186f6b6457e060405160405180910390a35050565b600080fd5b600073ffffffffffffffffffffffffffffffffffffffff82169050919050565b60006200022f8262000202565b9050919050565b6000620002438262000222565b9050919050565b620002558162000236565b81146200026157600080fd5b50565b60008151905062000275816200024a565b92915050565b600060208284031215620002945762000293620001fd565b5b6000620002a48482850162000264565b91505092915050565b600081519050919050565b7f4e487b7100000000000000000000000000000000000000000000000000000000600052604160045260246000fd5b7f4e487b7100000000000000000000000000000000000000000000000000000000600052602260045260246000fd5b600060028204905060018216806200032f57607f821691505b602082108103620003455762000344620002e7565b5b50919050565b60008190508160005260206000209050919050565b60006020601f8301049050919050565b600082821b905092915050565b600060088302620003af7fffffffffffffffffffffffffffffffffffffffffffffffffffffffffffffffff8262000370565b620003bb868362000370565b95508019841693508086168417925050509392505050565b6000819050919050565b6000819050919050565b60006200040862000402620003fc84620003d3565b620003dd565b620003d3565b9050919050565b6000819050919050565b6200042483620003e7565b6200043c62000433826200040f565b8484546200037d565b825550505050565b600090565b6200045362000444565b6200046081848462000419565b505050565b5b8181101562000488576200047c60008262000449565b60018101905062000466565b5050565b601f821115620004d757620004a1816200034b565b620004ac8462000360565b81016020851015620004bc578190505b620004d4620004cb8562000360565b83018262000465565b50505b505050565b600082821c905092915050565b6000620004fc60001984600802620004dc565b1980831691505092915050565b6000620005178383620004e9565b9150826002028217905092915050565b6200053282620002ad565b67ffffffffffffffff8111156200054e576200054d620002b8565b5b6200055a825462000316565b620005678282856200048c565b600060209050601f8311600181146200059f57600084156200058a578287015190505b62000596858262000509565b86555062000606565b601f198416620005af866200034b565b60005b82811015620005d957848901518255600182019150602085019450602081019050620005b2565b86831015620005f95784890151620005f5601f891682620004e9565b8355505b6001600288020188555050505b505050505050565b61410f806200061e6000396000f3fe608060405234801561001057600080fd5b506004361061012c5760003560e01c8063715018a6116100ad578063b88d4fde11610071578063b88d4fde14610341578063c87b56dd1461035d578063d5cf5f6f1461038d578063e985e9c5146103a9578063f2fde38b146103d95761012c565b8063715018a6146102c3578063876212a8146102cd5780638da5cb5b146102e957806395d89b4114610307578063a22cb465146103255761012c565b80631b532261116100f45780631b532261146101fb57806323b872dd1461022b57806342842e0e146102475780636352211e1461026357806370a08231146102935761012c565b806301ffc9a71461013157806306fdde0314610161578063081812fc1461017f578063095ea7b3146101af578063150b7a02146101cb575b600080fd5b61014b6004803603810190610146919061226f565b6103f5565b60405161015891906122b7565b60405180910390f35b6101696104d7565b6040516101769190612362565b60405180910390f35b610199600480360381019061019491906123ba565b610569565b6040516101a69190612428565b60405180910390f35b6101c960048036038101906101c4919061246f565b6105af565b005b6101e560048036038101906101e091906125e4565b6106c6565b6040516101f29190612676565b60405180910390f35b610215600480360381019061021091906123ba565b6106da565b60405161022291906126f0565b60405180910390f35b6102456004803603810190610240919061270b565b61070d565b005b610261600480360381019061025c919061270b565b61076d565b005b61027d600480360381019061027891906123ba565b61078d565b60405161028a9190612428565b60405180910390f35b6102ad60048036038101906102a8919061275e565b610813565b6040516102ba919061279a565b60405180910390f35b6102cb6108ca565b005b6102e760048036038101906102e29190612856565b6108de565b005b6102f1610b9c565b6040516102fe9190612428565b60405180910390f35b61030f610bc5565b60405161031c9190612362565b60405180910390f35b61033f600480360381019061033a91906128de565b610c57565b005b61035b600480360381019061035691906125e4565b610c6d565b005b610377600480360381019061037291906123ba565b610ccf565b6040516103849190612362565b60405180910390f35b6103a760048036038101906103a291906123ba565b610de1565b005b6103c360048036038101906103be919061291e565b610f75565b6040516103d091906122b7565b60405180910390f35b6103f360048036038101906103ee919061275e565b611009565b005b60007f80ac58cd000000000000000000000000000000000000000000000000000000007bffffffffffffffffffffffffffffffffffffffffffffffffffffffff1916827bffffffffffffffffffffffffffffffffffffffffffffffffffffffff191614806104c057507f5b5e139f000000000000000000000000000000000000000000000000000000007bffffffffffffffffffffffffffffffffffffffffffffffffffffffff1916827bffffffffffffffffffffffffffffffffffffffffffffffffffffffff1916145b806104d057506104cf8261108c565b5b9050919050565b6060600180546104e69061298d565b80601f01602080910402602001604051908101604052809291908181526020018280546105129061298d565b801561055f5780601f106105345761010080835404028352916020019161055f565b820191906000526020600020905b81548152906001019060200180831161054257829003601f168201915b5050505050905090565b6000610574826110f6565b6005600083815260200190815260200160002060009054906101000a900473ffffffffffffffffffffffffffffffffffffffff169050919050565b60006105ba8261078d565b90508073ffffffffffffffffffffffffffffffffffffffff168373ffffffffffffffffffffffffffffffffffffffff160361062a576040517f08c379a000000000000000000000000000000000000000000000000000000000815260040161062190612a30565b60405180910390fd5b8073ffffffffffffffffffffffffffffffffffffffff16610649611141565b73ffffffffffffffffffffffffffffffffffffffff161480610678575061067781610672611141565b610f75565b5b6106b7576040517f08c379a00000000000000000000000000000000000000000000000000000000081526004016106ae90612ac2565b60405180910390fd5b6106c18383611149565b505050565b600063150b7a0260e01b9050949350505050565b60096020528060005260406000206000915054906101000a900473ffffffffffffffffffffffffffffffffffffffff1681565b61071e610718611141565b82611202565b61075d576040517f08c379a000000000000000000000000000000000000000000000000000000000815260040161075490612b54565b60405180910390fd5b610768838383611297565b505050565b61078883838360405180602001604052806000815250610c6d565b505050565b60008061079983611590565b9050600073ffffffffffffffffffffffffffffffffffffffff168173ffffffffffffffffffffffffffffffffffffffff160361080a576040517f08c379a000000000000000000000000000000000000000000000000000000000815260040161080190612bc0565b60405180910390fd5b80915050919050565b60008073ffffffffffffffffffffffffffffffffffffffff168273ffffffffffffffffffffffffffffffffffffffff1603610883576040517f08c379a000000000000000000000000000000000000000000000000000000000815260040161087a90612c52565b60405180910390fd5b600460008373ffffffffffffffffffffffffffffffffffffffff1673ffffffffffffffffffffffffffffffffffffffff168152602001908152602001600020549050919050565b6108d26115cd565b6108dc600061164b565b565b3373ffffffffffffffffffffffffffffffffffffffff16600860009054906101000a900473ffffffffffffffffffffffffffffffffffffffff1673ffffffffffffffffffffffffffffffffffffffff16636352211e846040518263ffffffff1660e01b8152600401610950919061279a565b602060405180830381865afa15801561096d573d6000803e3d6000fd5b505050506040513d601f19601f820116820180604052508101906109919190612c87565b73ffffffffffffffffffffffffffffffffffffffff16146109e7576040517f08c379a00000000000000000000000000000000000000000000000000000000081526004016109de90612d26565b60405180910390fd5b600860009054906101000a900473ffffffffffffffffffffffffffffffffffffffff1673ffffffffffffffffffffffffffffffffffffffff166342842e0e3330856040518463ffffffff1660e01b8152600401610a4693929190612d46565b600060405180830381600087803b158015610a6057600080fd5b505af1158015610a74573d6000803e3d6000fd5b50505050610a82338361170f565b610a8c828261192c565b6000604051610a9a90612199565b604051809103906000f080158015610ab6573d6000803e3d6000fd5b5090508073ffffffffffffffffffffffffffffffffffffffff166375b30be673200657e2f123761662567a1744f9acae50df47e63368056bc75e2d631000006040518463ffffffff1660e01b8152600401610b1393929190612e50565b600060405180830381600087803b158015610b2d57600080fd5b505af1158015610b41573d6000803e3d6000fd5b50505050806009600085815260200190815260200160002060006101000a81548173ffffffffffffffffffffffffffffffffffffffff021916908373ffffffffffffffffffffffffffffffffffffffff160217905550505050565b60008060009054906101000a900473ffffffffffffffffffffffffffffffffffffffff16905090565b606060028054610bd49061298d565b80601f0160208091040260200160405190810160405280929190818152602001828054610c009061298d565b8015610c4d5780601f10610c2257610100808354040283529160200191610c4d565b820191906000526020600020905b815481529060010190602001808311610c3057829003601f168201915b5050505050905090565b610c69610c62611141565b8383611999565b5050565b610c7e610c78611141565b83611202565b610cbd576040517f08c379a0000000000000000000000000000000000000000000000000000000008152600401610cb490612b54565b60405180910390fd5b610cc984848484611b05565b50505050565b6060610cda826110f6565b6000600760008481526020019081526020016000208054610cfa9061298d565b80601f0160208091040260200160405190810160405280929190818152602001828054610d269061298d565b8015610d735780601f10610d4857610100808354040283529160200191610d73565b820191906000526020600020905b815481529060010190602001808311610d5657829003601f168201915b505050505090506000610d84611b61565b90506000815103610d99578192505050610ddc565b600082511115610dce578082604051602001610db6929190612ee9565b60405160208183030381529060405292505050610ddc565b610dd784611b78565b925050505b919050565b68056bc75e2d631000006009600083815260200190815260200160002060009054906101000a900473ffffffffffffffffffffffffffffffffffffffff1673ffffffffffffffffffffffffffffffffffffffff166370a08231336040518263ffffffff1660e01b8152600401610e579190612428565b602060405180830381865afa158015610e74573d6000803e3d6000fd5b505050506040513d601f19601f82011682018060405250810190610e989190612f22565b14610ed8576040517f08c379a0000000000000000000000000000000000000000000000000000000008152600401610ecf90612fc1565b60405180910390fd5b610ee181611be0565b600860009054906101000a900473ffffffffffffffffffffffffffffffffffffffff1673ffffffffffffffffffffffffffffffffffffffff166342842e0e3033846040518463ffffffff1660e01b8152600401610f4093929190612d46565b600060405180830381600087803b158015610f5a57600080fd5b505af1158015610f6e573d6000803e3d6000fd5b5050505050565b6000600660008473ffffffffffffffffffffffffffffffffffffffff1673ffffffffffffffffffffffffffffffffffffffff16815260200190815260200160002060008373ffffffffffffffffffffffffffffffffffffffff1673ffffffffffffffffffffffffffffffffffffffff16815260200190815260200160002060009054906101000a900460ff16905092915050565b6110116115cd565b600073ffffffffffffffffffffffffffffffffffffffff168173ffffffffffffffffffffffffffffffffffffffff1603611080576040517f08c379a000000000000000000000000000000000000000000000000000000000815260040161107790613053565b60405180910390fd5b6110898161164b565b50565b60007f01ffc9a7000000000000000000000000000000000000000000000000000000007bffffffffffffffffffffffffffffffffffffffffffffffffffffffff1916827bffffffffffffffffffffffffffffffffffffffffffffffffffffffff1916149050919050565b6110ff81611c33565b61113e576040517f08c379a000000000000000000000000000000000000000000000000000000000815260040161113590612bc0565b60405180910390fd5b50565b600033905090565b816005600083815260200190815260200160002060006101000a81548173ffffffffffffffffffffffffffffffffffffffff021916908373ffffffffffffffffffffffffffffffffffffffff160217905550808273ffffffffffffffffffffffffffffffffffffffff166111bc8361078d565b73ffffffffffffffffffffffffffffffffffffffff167f8c5be1e5ebec7d5bd14f71427d1e84f3dd0314c0f7b2291e5b200ac8c7c3b92560405160405180910390a45050565b60008061120e8361078d565b90508073ffffffffffffffffffffffffffffffffffffffff168473ffffffffffffffffffffffffffffffffffffffff161480611250575061124f8185610f75565b5b8061128e57508373ffffffffffffffffffffffffffffffffffffffff1661127684610569565b73ffffffffffffffffffffffffffffffffffffffff16145b91505092915050565b8273ffffffffffffffffffffffffffffffffffffffff166112b78261078d565b73ffffffffffffffffffffffffffffffffffffffff161461130d576040517f08c379a0000000000000000000000000000000000000000000000000000000008152600401611304906130e5565b60405180910390fd5b600073ffffffffffffffffffffffffffffffffffffffff168273ffffffffffffffffffffffffffffffffffffffff160361137c576040517f08c379a000000000000000000000000000000000000000000000000000000000815260040161137390613177565b60405180910390fd5b6113898383836001611c74565b8273ffffffffffffffffffffffffffffffffffffffff166113a98261078d565b73ffffffffffffffffffffffffffffffffffffffff16146113ff576040517f08c379a00000000000000000000000000000000000000000000000000000000081526004016113f6906130e5565b60405180910390fd5b6005600082815260200190815260200160002060006101000a81549073ffffffffffffffffffffffffffffffffffffffff02191690556001600460008573ffffffffffffffffffffffffffffffffffffffff1673ffffffffffffffffffffffffffffffffffffffff168152602001908152602001600020600082825403925050819055506001600460008473ffffffffffffffffffffffffffffffffffffffff1673ffffffffffffffffffffffffffffffffffffffff16815260200190815260200160002060008282540192505081905550816003600083815260200190815260200160002060006101000a81548173ffffffffffffffffffffffffffffffffffffffff021916908373ffffffffffffffffffffffffffffffffffffffff160217905550808273ffffffffffffffffffffffffffffffffffffffff168473ffffffffffffffffffffffffffffffffffffffff167fddf252ad1be2c89b69c2b068fc378daa952ba7f163c4a11628f55a4df523b3ef60405160405180910390a461158b8383836001611c7a565b505050565b60006003600083815260200190815260200160002060009054906101000a900473ffffffffffffffffffffffffffffffffffffffff169050919050565b6115d5611141565b73ffffffffffffffffffffffffffffffffffffffff166115f3610b9c565b73ffffffffffffffffffffffffffffffffffffffff1614611649576040517f08c379a0000000000000000000000000000000000000000000000000000000008152600401611640906131e3565b60405180910390fd5b565b60008060009054906101000a900473ffffffffffffffffffffffffffffffffffffffff169050816000806101000a81548173ffffffffffffffffffffffffffffffffffffffff021916908373ffffffffffffffffffffffffffffffffffffffff1602179055508173ffffffffffffffffffffffffffffffffffffffff168173ffffffffffffffffffffffffffffffffffffffff167f8be0079c531659141344cd1fd0a4f28419497f9722a3daafe3b4186f6b6457e060405160405180910390a35050565b600073ffffffffffffffffffffffffffffffffffffffff168273ffffffffffffffffffffffffffffffffffffffff160361177e576040517f08c379a00000000000000000000000000000000000000000000000000000000081526004016117759061324f565b60405180910390fd5b61178781611c33565b156117c7576040517f08c379a00000000000000000000000000000000000000000000000000000000081526004016117be906132bb565b60405180910390fd5b6117d5600083836001611c74565b6117de81611c33565b1561181e576040517f08c379a0000000000000000000000000000000000000000000000000000000008152600401611815906132bb565b60405180910390fd5b6001600460008473ffffffffffffffffffffffffffffffffffffffff1673ffffffffffffffffffffffffffffffffffffffff16815260200190815260200160002060008282540192505081905550816003600083815260200190815260200160002060006101000a81548173ffffffffffffffffffffffffffffffffffffffff021916908373ffffffffffffffffffffffffffffffffffffffff160217905550808273ffffffffffffffffffffffffffffffffffffffff16600073ffffffffffffffffffffffffffffffffffffffff167fddf252ad1be2c89b69c2b068fc378daa952ba7f163c4a11628f55a4df523b3ef60405160405180910390a4611928600083836001611c7a565b5050565b61193582611c33565b611974576040517f08c379a000000000000000000000000000000000000000000000000000000000815260040161196b9061334d565b60405180910390fd5b80600760008481526020019081526020016000209081611994919061350f565b505050565b8173ffffffffffffffffffffffffffffffffffffffff168373ffffffffffffffffffffffffffffffffffffffff1603611a07576040517f08c379a00000000000000000000000000000000000000000000000000000000081526004016119fe9061362d565b60405180910390fd5b80600660008573ffffffffffffffffffffffffffffffffffffffff1673ffffffffffffffffffffffffffffffffffffffff16815260200190815260200160002060008473ffffffffffffffffffffffffffffffffffffffff1673ffffffffffffffffffffffffffffffffffffffff16815260200190815260200160002060006101000a81548160ff0219169083151502179055508173ffffffffffffffffffffffffffffffffffffffff168373ffffffffffffffffffffffffffffffffffffffff167f17307eab39ab6107e8899845ad3d59bd9653f200f220920489ca2b5937696c3183604051611af891906122b7565b60405180910390a3505050565b611b10848484611297565b611b1c84848484611c80565b611b5b576040517f08c379a0000000000000000000000000000000000000000000000000000000008152600401611b52906136bf565b60405180910390fd5b50505050565b606060405180602001604052806000815250905090565b6060611b83826110f6565b6000611b8d611b61565b90506000815111611bad5760405180602001604052806000815250611bd8565b80611bb784611e07565b604051602001611bc8929190612ee9565b6040516020818303038152906040525b915050919050565b611be981611ed5565b6000600760008381526020019081526020016000208054611c099061298d565b905014611c3057600760008281526020019081526020016000206000611c2f91906121a6565b5b50565b60008073ffffffffffffffffffffffffffffffffffffffff16611c5583611590565b73ffffffffffffffffffffffffffffffffffffffff1614159050919050565b50505050565b50505050565b6000611ca18473ffffffffffffffffffffffffffffffffffffffff16612023565b15611dfa578373ffffffffffffffffffffffffffffffffffffffff1663150b7a02611cca611141565b8786866040518563ffffffff1660e01b8152600401611cec9493929190613734565b6020604051808303816000875af1925050508015611d2857506040513d601f19601f82011682018060405250810190611d259190613795565b60015b611daa573d8060008114611d58576040519150601f19603f3d011682016040523d82523d6000602084013e611d5d565b606091505b506000815103611da2576040517f08c379a0000000000000000000000000000000000000000000000000000000008152600401611d99906136bf565b60405180910390fd5b805181602001fd5b63150b7a0260e01b7bffffffffffffffffffffffffffffffffffffffffffffffffffffffff1916817bffffffffffffffffffffffffffffffffffffffffffffffffffffffff191614915050611dff565b600190505b949350505050565b606060006001611e1684612046565b01905060008167ffffffffffffffff811115611e3557611e346124b9565b5b6040519080825280601f01601f191660200182016040528015611e675781602001600182028036833780820191505090505b509050600082602001820190505b600115611eca578080600190039150507f3031323334353637383961626364656600000000000000000000000000000000600a86061a8153600a8581611ebe57611ebd6137c2565b5b04945060008503611e75575b819350505050919050565b6000611ee08261078d565b9050611ef0816000846001611c74565b611ef98261078d565b90506005600083815260200190815260200160002060006101000a81549073ffffffffffffffffffffffffffffffffffffffff02191690556001600460008373ffffffffffffffffffffffffffffffffffffffff1673ffffffffffffffffffffffffffffffffffffffff168152602001908152602001600020600082825403925050819055506003600083815260200190815260200160002060006101000a81549073ffffffffffffffffffffffffffffffffffffffff021916905581600073ffffffffffffffffffffffffffffffffffffffff168273ffffffffffffffffffffffffffffffffffffffff167fddf252ad1be2c89b69c2b068fc378daa952ba7f163c4a11628f55a4df523b3ef60405160405180910390a461201f816000846001611c7a565b5050565b6000808273ffffffffffffffffffffffffffffffffffffffff163b119050919050565b600080600090507a184f03e93ff9f4daa797ed6e38ed64bf6a1f01000000000000000083106120a4577a184f03e93ff9f4daa797ed6e38ed64bf6a1f010000000000000000838161209a576120996137c2565b5b0492506040810190505b6d04ee2d6d415b85acef810000000083106120e1576d04ee2d6d415b85acef810000000083816120d7576120d66137c2565b5b0492506020810190505b662386f26fc10000831061211057662386f26fc100008381612106576121056137c2565b5b0492506010810190505b6305f5e1008310612139576305f5e100838161212f5761212e6137c2565b5b0492506008810190505b612710831061215e576127108381612154576121536137c2565b5b0492506004810190505b606483106121815760648381612177576121766137c2565b5b0492506002810190505b600a8310612190576001810190505b80915050919050565b6108e8806137f283390190565b5080546121b29061298d565b6000825580601f106121c457506121e3565b601f0160209004906000526020600020908101906121e291906121e6565b5b50565b5b808211156121ff5760008160009055506001016121e7565b5090565b6000604051905090565b600080fd5b600080fd5b60007fffffffff0000000000000000000000000000000000000000000000000000000082169050919050565b61224c81612217565b811461225757600080fd5b50565b60008135905061226981612243565b92915050565b6000602082840312156122855761228461220d565b5b60006122938482850161225a565b91505092915050565b60008115159050919050565b6122b18161229c565b82525050565b60006020820190506122cc60008301846122a8565b92915050565b600081519050919050565b600082825260208201905092915050565b60005b8381101561230c5780820151818401526020810190506122f1565b60008484015250505050565b6000601f19601f8301169050919050565b6000612334826122d2565b61233e81856122dd565b935061234e8185602086016122ee565b61235781612318565b840191505092915050565b6000602082019050818103600083015261237c8184612329565b905092915050565b6000819050919050565b61239781612384565b81146123a257600080fd5b50565b6000813590506123b48161238e565b92915050565b6000602082840312156123d0576123cf61220d565b5b60006123de848285016123a5565b91505092915050565b600073ffffffffffffffffffffffffffffffffffffffff82169050919050565b6000612412826123e7565b9050919050565b61242281612407565b82525050565b600060208201905061243d6000830184612419565b92915050565b61244c81612407565b811461245757600080fd5b50565b60008135905061246981612443565b92915050565b600080604083850312156124865761248561220d565b5b60006124948582860161245a565b92505060206124a5858286016123a5565b9150509250929050565b600080fd5b600080fd5b7f4e487b7100000000000000000000000000000000000000000000000000000000600052604160045260246000fd5b6124f182612318565b810181811067ffffffffffffffff821117156125105761250f6124b9565b5b80604052505050565b6000612523612203565b905061252f82826124e8565b919050565b600067ffffffffffffffff82111561254f5761254e6124b9565b5b61255882612318565b9050602081019050919050565b82818337600083830152505050565b600061258761258284612534565b612519565b9050828152602081018484840111156125a3576125a26124b4565b5b6125ae848285612565565b509392505050565b600082601f8301126125cb576125ca6124af565b5b81356125db848260208601612574565b91505092915050565b600080600080608085870312156125fe576125fd61220d565b5b600061260c8782880161245a565b945050602061261d8782880161245a565b935050604061262e878288016123a5565b925050606085013567ffffffffffffffff81111561264f5761264e612212565b5b61265b878288016125b6565b91505092959194509250565b61267081612217565b82525050565b600060208201905061268b6000830184612667565b92915050565b6000819050919050565b60006126b66126b16126ac846123e7565b612691565b6123e7565b9050919050565b60006126c88261269b565b9050919050565b60006126da826126bd565b9050919050565b6126ea816126cf565b82525050565b600060208201905061270560008301846126e1565b92915050565b6000806000606084860312156127245761272361220d565b5b60006127328682870161245a565b93505060206127438682870161245a565b9250506040612754868287016123a5565b9150509250925092565b6000602082840312156127745761277361220d565b5b60006127828482850161245a565b91505092915050565b61279481612384565b82525050565b60006020820190506127af600083018461278b565b92915050565b600067ffffffffffffffff8211156127d0576127cf6124b9565b5b6127d982612318565b9050602081019050919050565b60006127f96127f4846127b5565b612519565b905082815260208101848484011115612815576128146124b4565b5b612820848285612565565b509392505050565b600082601f83011261283d5761283c6124af565b5b813561284d8482602086016127e6565b91505092915050565b6000806040838503121561286d5761286c61220d565b5b600061287b858286016123a5565b925050602083013567ffffffffffffffff81111561289c5761289b612212565b5b6128a885828601612828565b9150509250929050565b6128bb8161229c565b81146128c657600080fd5b50565b6000813590506128d8816128b2565b92915050565b600080604083850312156128f5576128f461220d565b5b60006129038582860161245a565b9250506020612914858286016128c9565b9150509250929050565b600080604083850312156129355761293461220d565b5b60006129438582860161245a565b92505060206129548582860161245a565b9150509250929050565b7f4e487b7100000000000000000000000000000000000000000000000000000000600052602260045260246000fd5b600060028204905060018216806129a557607f821691505b6020821081036129b8576129b761295e565b5b50919050565b7f4552433732313a20617070726f76616c20746f2063757272656e74206f776e6560008201527f7200000000000000000000000000000000000000000000000000000000000000602082015250565b6000612a1a6021836122dd565b9150612a25826129be565b604082019050919050565b60006020820190508181036000830152612a4981612a0d565b9050919050565b7f4552433732313a20617070726f76652063616c6c6572206973206e6f7420746f60008201527f6b656e206f776e6572206f7220617070726f76656420666f7220616c6c000000602082015250565b6000612aac603d836122dd565b9150612ab782612a50565b604082019050919050565b60006020820190508181036000830152612adb81612a9f565b9050919050565b7f4552433732313a2063616c6c6572206973206e6f7420746f6b656e206f776e6560008201527f72206f7220617070726f76656400000000000000000000000000000000000000602082015250565b6000612b3e602d836122dd565b9150612b4982612ae2565b604082019050919050565b60006020820190508181036000830152612b6d81612b31565b9050919050565b7f4552433732313a20696e76616c696420746f6b656e2049440000000000000000600082015250565b6000612baa6018836122dd565b9150612bb582612b74565b602082019050919050565b60006020820190508181036000830152612bd981612b9d565b9050919050565b7f4552433732313a2061646472657373207a65726f206973206e6f74206120766160008201527f6c6964206f776e65720000000000000000000000000000000000000000000000602082015250565b6000612c3c6029836122dd565b9150612c4782612be0565b604082019050919050565b60006020820190508181036000830152612c6b81612c2f565b9050919050565b600081519050612c8181612443565b92915050565b600060208284031215612c9d57612c9c61220d565b5b6000612cab84828501612c72565b91505092915050565b7f4f6e6c7920746865206f776e6572206f6620746865204e46542063616e20777260008201527f6170206974000000000000000000000000000000000000000000000000000000602082015250565b6000612d106025836122dd565b9150612d1b82612cb4565b604082019050919050565b60006020820190508181036000830152612d3f81612d03565b9050919050565b6000606082019050612d5b6000830186612419565b612d686020830185612419565b612d75604083018461278b565b949350505050565b7f466c756964204672616374696f6e20546f6b656e000000000000000000000000600082015250565b6000612db36014836122dd565b9150612dbe82612d7d565b602082019050919050565b7f4646540000000000000000000000000000000000000000000000000000000000600082015250565b6000612dff6003836122dd565b9150612e0a82612dc9565b602082019050919050565b6000819050919050565b6000612e3a612e35612e3084612e15565b612691565b612384565b9050919050565b612e4a81612e1f565b82525050565b600060a082019050612e656000830186612419565b8181036020830152612e7681612da6565b90508181036040830152612e8981612df2565b9050612e986060830185612419565b612ea56080830184612e41565b949350505050565b600081905092915050565b6000612ec3826122d2565b612ecd8185612ead565b9350612edd8185602086016122ee565b80840191505092915050565b6000612ef58285612eb8565b9150612f018284612eb8565b91508190509392505050565b600081519050612f1c8161238e565b92915050565b600060208284031215612f3857612f3761220d565b5b6000612f4684828501612f0d565b91505092915050565b7f4f6e6c7920746865206f776e6572206f66207468652077726170706564204e4660008201527f542063616e20756e777261702069740000000000000000000000000000000000602082015250565b6000612fab602f836122dd565b9150612fb682612f4f565b604082019050919050565b60006020820190508181036000830152612fda81612f9e565b9050919050565b7f4f776e61626c653a206e6577206f776e657220697320746865207a65726f206160008201527f6464726573730000000000000000000000000000000000000000000000000000602082015250565b600061303d6026836122dd565b915061304882612fe1565b604082019050919050565b6000602082019050818103600083015261306c81613030565b9050919050565b7f4552433732313a207472616e736665722066726f6d20696e636f72726563742060008201527f6f776e6572000000000000000000000000000000000000000000000000000000602082015250565b60006130cf6025836122dd565b91506130da82613073565b604082019050919050565b600060208201905081810360008301526130fe816130c2565b9050919050565b7f4552433732313a207472616e7366657220746f20746865207a65726f2061646460008201527f7265737300000000000000000000000000000000000000000000000000000000602082015250565b60006131616024836122dd565b915061316c82613105565b604082019050919050565b6000602082019050818103600083015261319081613154565b9050919050565b7f4f776e61626c653a2063616c6c6572206973206e6f7420746865206f776e6572600082015250565b60006131cd6020836122dd565b91506131d882613197565b602082019050919050565b600060208201905081810360008301526131fc816131c0565b9050919050565b7f4552433732313a206d696e7420746f20746865207a65726f2061646472657373600082015250565b60006132396020836122dd565b915061324482613203565b602082019050919050565b600060208201905081810360008301526132688161322c565b9050919050565b7f4552433732313a20746f6b656e20616c7265616479206d696e74656400000000600082015250565b60006132a5601c836122dd565b91506132b08261326f565b602082019050919050565b600060208201905081810360008301526132d481613298565b9050919050565b7f45524337323155524953746f726167653a2055524920736574206f66206e6f6e60008201527f6578697374656e7420746f6b656e000000000000000000000000000000000000602082015250565b6000613337602e836122dd565b9150613342826132db565b604082019050919050565b600060208201905081810360008301526133668161332a565b9050919050565b60008190508160005260206000209050919050565b60006020601f8301049050919050565b600082821b905092915050565b6000600883026133cf7fffffffffffffffffffffffffffffffffffffffffffffffffffffffffffffffff82613392565b6133d98683613392565b95508019841693508086168417925050509392505050565b600061340c61340761340284612384565b612691565b612384565b9050919050565b6000819050919050565b613426836133f1565b61343a61343282613413565b84845461339f565b825550505050565b600090565b61344f613442565b61345a81848461341d565b505050565b5b8181101561347e57613473600082613447565b600181019050613460565b5050565b601f8211156134c3576134948161336d565b61349d84613382565b810160208510156134ac578190505b6134c06134b885613382565b83018261345f565b50505b505050565b600082821c905092915050565b60006134e6600019846008026134c8565b1980831691505092915050565b60006134ff83836134d5565b9150826002028217905092915050565b613518826122d2565b67ffffffffffffffff811115613531576135306124b9565b5b61353b825461298d565b613546828285613482565b600060209050601f8311600181146135795760008415613567578287015190505b61357185826134f3565b8655506135d9565b601f1984166135878661336d565b60005b828110156135af5784890151825560018201915060208501945060208101905061358a565b868310156135cc57848901516135c8601f8916826134d5565b8355505b6001600288020188555050505b505050505050565b7f4552433732313a20617070726f766520746f2063616c6c657200000000000000600082015250565b60006136176019836122dd565b9150613622826135e1565b602082019050919050565b600060208201905081810360008301526136468161360a565b9050919050565b7f4552433732313a207472616e7366657220746f206e6f6e20455243373231526560008201527f63656976657220696d706c656d656e7465720000000000000000000000000000602082015250565b60006136a96032836122dd565b91506136b48261364d565b604082019050919050565b600060208201905081810360008301526136d88161369c565b9050919050565b600081519050919050565b600082825260208201905092915050565b6000613706826136df565b61371081856136ea565b93506137208185602086016122ee565b61372981612318565b840191505092915050565b60006080820190506137496000830187612419565b6137566020830186612419565b613763604083018561278b565b818103606083015261377581846136fb565b905095945050505050565b60008151905061378f81612243565b92915050565b6000602082840312156137ab576137aa61220d565b5b60006137b984828501613780565b91505092915050565b7f4e487b7100000000000000000000000000000000000000000000000000000000600052601260045260246000fdfe608060405234801561001057600080fd5b506108c8806100206000396000f3fe60806040526004361061002d5760003560e01c80634a0687ef1461004657806375b30be61461006f5761003c565b3661003c5761003a610098565b005b610044610098565b005b34801561005257600080fd5b5061006d600480360381019061006891906103f1565b6100b2565b005b34801561007b57600080fd5b506100966004803603810190610091919061059a565b6101ab565b005b6100a06101d7565b6100b06100ab6101d9565b610202565b565b600073ffffffffffffffffffffffffffffffffffffffff168173ffffffffffffffffffffffffffffffffffffffff1603610118576040517fd92e233d00000000000000000000000000000000000000000000000000000000815260040160405180910390fd5b600073ffffffffffffffffffffffffffffffffffffffff166101386101d9565b73ffffffffffffffffffffffffffffffffffffffff1614610185576040517f5daa87a000000000000000000000000000000000000000000000000000000000815260040160405180910390fd5b807f360894a13ba1a3210667c828492db98dca3e2076cc3735a920a3ca505d382bbc5550565b6101b6858585610228565b6101d082826040518060200160405280600081525061030b565b5050505050565b565b60007f360894a13ba1a3210667c828492db98dca3e2076cc3735a920a3ca505d382bbc54905090565b3660008037600080366000845af43d6000803e8060008114610223573d6000f35b3d6000fd5b8273ffffffffffffffffffffffffffffffffffffffff1663d412d344306040518263ffffffff1660e01b8152600401610261919061065c565b600060405180830381600087803b15801561027b57600080fd5b505af115801561028f573d6000803e3d6000fd5b505050503073ffffffffffffffffffffffffffffffffffffffff166342fe09806000601285856040518563ffffffff1660e01b81526004016102d4949392919061079d565b600060405180830381600087803b1580156102ee57600080fd5b505af1158015610302573d6000803e3d6000fd5b50505050505050565b3073ffffffffffffffffffffffffffffffffffffffff1663c68d42838484846040518463ffffffff1660e01b815260040161034893929190610854565b600060405180830381600087803b15801561036257600080fd5b505af1158015610376573d6000803e3d6000fd5b50505050505050565b6000604051905090565b600080fd5b600080fd5b600073ffffffffffffffffffffffffffffffffffffffff82169050919050565b60006103be82610393565b9050919050565b6103ce816103b3565b81146103d957600080fd5b50565b6000813590506103eb816103c5565b92915050565b60006020828403121561040757610406610389565b5b6000610415848285016103dc565b91505092915050565b600080fd5b600080fd5b6000601f19601f8301169050919050565b7f4e487b7100000000000000000000000000000000000000000000000000000000600052604160045260246000fd5b61047182610428565b810181811067ffffffffffffffff821117156104905761048f610439565b5b80604052505050565b60006104a361037f565b90506104af8282610468565b919050565b600067ffffffffffffffff8211156104cf576104ce610439565b5b6104d882610428565b9050602081019050919050565b82818337600083830152505050565b6000610507610502846104b4565b610499565b90508281526020810184848401111561052357610522610423565b5b61052e8482856104e5565b509392505050565b600082601f83011261054b5761054a61041e565b5b813561055b8482602086016104f4565b91505092915050565b6000819050919050565b61057781610564565b811461058257600080fd5b50565b6000813590506105948161056e565b92915050565b600080600080600060a086880312156105b6576105b5610389565b5b60006105c4888289016103dc565b955050602086013567ffffffffffffffff8111156105e5576105e461038e565b5b6105f188828901610536565b945050604086013567ffffffffffffffff8111156106125761061161038e565b5b61061e88828901610536565b935050606061062f888289016103dc565b925050608061064088828901610585565b9150509295509295909350565b610656816103b3565b82525050565b6000602082019050610671600083018461064d565b92915050565b6000819050919050565b600061069c61069761069284610393565b610677565b610393565b9050919050565b60006106ae82610681565b9050919050565b60006106c0826106a3565b9050919050565b6106d0816106b5565b82525050565b6000819050919050565b600060ff82169050919050565b60006107086107036106fe846106d6565b610677565b6106e0565b9050919050565b610718816106ed565b82525050565b600081519050919050565b600082825260208201905092915050565b60005b8381101561075857808201518184015260208101905061073d565b60008484015250505050565b600061076f8261071e565b6107798185610729565b935061078981856020860161073a565b61079281610428565b840191505092915050565b60006080820190506107b260008301876106c7565b6107bf602083018661070f565b81810360408301526107d18185610764565b905081810360608301526107e58184610764565b905095945050505050565b6107f981610564565b82525050565b600081519050919050565b600082825260208201905092915050565b6000610826826107ff565b610830818561080a565b935061084081856020860161073a565b61084981610428565b840191505092915050565b6000606082019050610869600083018661064d565b61087660208301856107f0565b8181036040830152610888818461081b565b905094935050505056fea26469706673582212208cd965f92268d0cb52df104439d2808685b96fb8cfc18c8fa796671b793c60dd64736f6c63430008130033a26469706673582212202b455b5efde8013cc213ed2cf705a7dec0f712f2d1be0c2a0d37d7b1c98666d264736f6c63430008130033",
  "linkReferences": {},
  "deployedLinkReferences": {}
}