{
  "_format": "hh-sol-artifact-1",
  "contractName": "SuperNFTSwapper",
  "sourceName": "contracts/superNFTSwapper.sol",
  "abi": [
    {
      "inputs": [
        {
          "internalType": "contract ISuperToken",
          "name": "payWithToken_",
          "type": "address"
        }
      ],
      "stateMutability": "nonpayable",
      "type": "constructor"
    },
    {
      "inputs": [
        {
          "internalType": "contract ISuperToken",
          "name": "FFToken",
          "type": "address"
        },
        {
          "internalType": "int96",
          "name": "flowRate",
          "type": "int96"
        },
        {
          "internalType": "address",
          "name": "seller",
          "type": "address"
        },
        {
          "internalType": "uint256",
          "name": "price",
          "type": "uint256"
        }
      ],
      "name": "StartSwap",
      "outputs": [],
      "stateMutability": "nonpayable",
      "type": "function"
    }
  ],
  "bytecode": "0x608060405234801561001057600080fd5b5060405162000e6c38038062000e6c833981810160405281019061003491906100ef565b806000806101000a81548173ffffffffffffffffffffffffffffffffffffffff021916908373ffffffffffffffffffffffffffffffffffffffff1602179055505061011c565b600080fd5b600073ffffffffffffffffffffffffffffffffffffffff82169050919050565b60006100aa8261007f565b9050919050565b60006100bc8261009f565b9050919050565b6100cc816100b1565b81146100d757600080fd5b50565b6000815190506100e9816100c3565b92915050565b6000602082840312156101055761010461007a565b5b6000610113848285016100da565b91505092915050565b610d40806200012c6000396000f3fe608060405234801561001057600080fd5b506004361061002b5760003560e01c8063c1a4d78c14610030575b600080fd5b61004a6004803603810190610045919061069e565b61004c565b005b600083600b0b13610092576040517f08c379a000000000000000000000000000000000000000000000000000000000815260040161008990610762565b60405180910390fd5b6100df33838560008054906101000a900473ffffffffffffffffffffffffffffffffffffffff1673ffffffffffffffffffffffffffffffffffffffff16610142909392919063ffffffff16565b50600083600b0b826100f191906107ea565b905060008168056bc75e2d6310000061010a9190610854565b90506101398433838973ffffffffffffffffffffffffffffffffffffffff16610142909392919063ffffffff16565b50505050505050565b6000806000610150876102f8565b915091508173ffffffffffffffffffffffffffffffffffffffff166339255d5b828373ffffffffffffffffffffffffffffffffffffffff166394229ecb8b8b8b8b600067ffffffffffffffff8111156101ac576101ab610885565b5b6040519080825280601f01601f1916602001820160405280156101de5781602001600182028036833780820191505090505b506040516024016101f39594939291906109c1565b604051602081830303815290604052915060e01b6020820180517bffffffffffffffffffffffffffffffffffffffffffffffffffffffff8381831617835250505050600067ffffffffffffffff8111156102505761024f610885565b5b6040519080825280601f01601f1916602001820160405280156102825781602001600182028036833780820191505090505b506040518463ffffffff1660e01b81526004016102a193929190610a3c565b6000604051808303816000875af11580156102c0573d6000803e3d6000fd5b505050506040513d6000823e3d601f19601f820116820180604052508101906102e99190610b78565b50600192505050949350505050565b6000807f65599bf746e17a00ea62e3610586992d88101b78eec3cf380706621fb97ea8375491507fb969d79d88acd02d04ed7ee7d43b949e7daf093d363abcfbbc43dfdfd1ce969a549050600073ffffffffffffffffffffffffffffffffffffffff168173ffffffffffffffffffffffffffffffffffffffff160361050057600073ffffffffffffffffffffffffffffffffffffffff168273ffffffffffffffffffffffffffffffffffffffff160361041d578273ffffffffffffffffffffffffffffffffffffffff166320bc44256040518163ffffffff1660e01b8152600401602060405180830381865afa1580156103f6573d6000803e3d6000fd5b505050506040513d601f19601f8201168201806040525081019061041a9190610bd6565b91505b8173ffffffffffffffffffffffffffffffffffffffff1663b6d200de7fa9214cc96615e0085d3bb077758db69497dc2dce3b2b1e97bc93c3d18d83efd36040518263ffffffff1660e01b81526004016104769190610c55565b602060405180830381865afa158015610493573d6000803e3d6000fd5b505050506040513d601f19601f820116820180604052508101906104b79190610cae565b9050817f65599bf746e17a00ea62e3610586992d88101b78eec3cf380706621fb97ea83755807fb969d79d88acd02d04ed7ee7d43b949e7daf093d363abcfbbc43dfdfd1ce969a555b600073ffffffffffffffffffffffffffffffffffffffff168273ffffffffffffffffffffffffffffffffffffffff160361053d5761053c610cdb565b5b600073ffffffffffffffffffffffffffffffffffffffff168173ffffffffffffffffffffffffffffffffffffffff160361057a57610579610cdb565b5b915091565b6000604051905090565b600080fd5b600080fd5b600073ffffffffffffffffffffffffffffffffffffffff82169050919050565b60006105be82610593565b9050919050565b60006105d0826105b3565b9050919050565b6105e0816105c5565b81146105eb57600080fd5b50565b6000813590506105fd816105d7565b92915050565b600081600b0b9050919050565b61061981610603565b811461062457600080fd5b50565b60008135905061063681610610565b92915050565b610645816105b3565b811461065057600080fd5b50565b6000813590506106628161063c565b92915050565b6000819050919050565b61067b81610668565b811461068657600080fd5b50565b60008135905061069881610672565b92915050565b600080600080608085870312156106b8576106b7610589565b5b60006106c6878288016105ee565b94505060206106d787828801610627565b93505060406106e887828801610653565b92505060606106f987828801610689565b91505092959194509250565b600082825260208201905092915050565b7f4f6e6c7920506f73697469766520466c6f775261746520416363657074656400600082015250565b600061074c601f83610705565b915061075782610716565b602082019050919050565b6000602082019050818103600083015261077b8161073f565b9050919050565b6000819050919050565b7f4e487b7100000000000000000000000000000000000000000000000000000000600052601260045260246000fd5b7f4e487b7100000000000000000000000000000000000000000000000000000000600052601160045260246000fd5b60006107f582610782565b915061080083610782565b9250826108105761080f61078c565b5b600160000383147f800000000000000000000000000000000000000000000000000000000000000083141615610849576108486107bb565b5b828205905092915050565b600061085f82610668565b915061086a83610668565b92508261087a5761087961078c565b5b828204905092915050565b7f4e487b7100000000000000000000000000000000000000000000000000000000600052604160045260246000fd5b6000819050919050565b60006108d96108d46108cf84610593565b6108b4565b610593565b9050919050565b60006108eb826108be565b9050919050565b60006108fd826108e0565b9050919050565b61090d816108f2565b82525050565b61091c816105b3565b82525050565b61092b81610603565b82525050565b600081519050919050565b600082825260208201905092915050565b60005b8381101561096b578082015181840152602081019050610950565b60008484015250505050565b6000601f19601f8301169050919050565b600061099382610931565b61099d818561093c565b93506109ad81856020860161094d565b6109b681610977565b840191505092915050565b600060a0820190506109d66000830188610904565b6109e36020830187610913565b6109f06040830186610913565b6109fd6060830185610922565b8181036080830152610a0f8184610988565b90509695505050505050565b6000610a26826108e0565b9050919050565b610a3681610a1b565b82525050565b6000606082019050610a516000830186610a2d565b8181036020830152610a638185610988565b90508181036040830152610a778184610988565b9050949350505050565b600080fd5b600080fd5b610a9482610977565b810181811067ffffffffffffffff82111715610ab357610ab2610885565b5b80604052505050565b6000610ac661057f565b9050610ad28282610a8b565b919050565b600067ffffffffffffffff821115610af257610af1610885565b5b610afb82610977565b9050602081019050919050565b6000610b1b610b1684610ad7565b610abc565b905082815260208101848484011115610b3757610b36610a86565b5b610b4284828561094d565b509392505050565b600082601f830112610b5f57610b5e610a81565b5b8151610b6f848260208601610b08565b91505092915050565b600060208284031215610b8e57610b8d610589565b5b600082015167ffffffffffffffff811115610bac57610bab61058e565b5b610bb884828501610b4a565b91505092915050565b600081519050610bd08161063c565b92915050565b600060208284031215610bec57610beb610589565b5b6000610bfa84828501610bc1565b91505092915050565b6000819050919050565b6000819050919050565b60008160001b9050919050565b6000610c3f610c3a610c3584610c03565b610c17565b610c0d565b9050919050565b610c4f81610c24565b82525050565b6000602082019050610c6a6000830184610c46565b92915050565b6000610c7b826105b3565b9050919050565b610c8b81610c70565b8114610c9657600080fd5b50565b600081519050610ca881610c82565b92915050565b600060208284031215610cc457610cc3610589565b5b6000610cd284828501610c99565b91505092915050565b7f4e487b7100000000000000000000000000000000000000000000000000000000600052600160045260246000fdfea26469706673582212208a8ed552b77f1286254b49b2d5982e044cc2e1f9757f1423e5f4838f85c5088764736f6c63430008130033",
  "linkReferences": {},
  "deployedLinkReferences": {}
}